:020000040000FA
:10000000B811082001030000090300000B030000E1
:100010000D0300000F0300001103000000000000AA
:1000200000000000000000000000000019020000B5
:10003000150300000000000091020000CD02000046
:100040001B0300001B0300001B0300001B03000038
:100050001B0300001B0300001B0300001B03000028
:100060001B0300001B0300001B0300001B03000018
:100070001B0300001B030000652900001B03000098
:100080001B0300001B0300001B0300001B030000F8
:100090001B0300001B0300001B0300001B030000E8
:1000A0001B0300001B0300008D1A00001B0300004F
:1000B0000D1C00001B0300001B0300001B030000BD
:1000C0001B0300001B0300001B03000000F002F8EC
:1000D00000F04DF80AA090E8000C82448344AAF195
:1000E0000107DA4501D100F042F8AFF2090EBAE893
:1000F0000F0013F0010F18BFFB1A43F0010318475C
:10010000D0C8000010C90000103A24BF78C878C1D8
:10011000FAD8520724BF30C830C144BF04680C600D
:10012000704700000023002400250026103A28BF55
:1001300078C1FBD8520728BF30C148BF0B60704759
:10014000002070471FB59DE8030000F0EEFE01F0AF
:1001500054FA0400002000210BF0CEFF401C606028
:1001600001F03CF91FBD10B501F0B0F910BD01F070
:100170001FFA1146FFF7E6FF0FB400F00BF80FBCB3
:1001800006F0CEFE00F06CFB03B4FFF7ECFF03BCFF
:1001900001F008FA04B009F0ABFD0448002109F0B1
:1001A00093FE09F0B7FD00F05BFB00007CC100008E
:1001B00080F309887047EFF309807047684680F341
:1001C000098804480078C00714BF0220032080F388
:1001D000148870473CC10000DFF818C0EFF30583B6
:1001E0001B0618BF6047EFF31483DB0708BF6047A7
:1001F00000DF70478FA40000DFF818C0EFF305831D
:100200001B0618BF6047EFF31483DB0708BF604786
:1002100000DF7047E5A60000EFF30980816911F85F
:10022000021CF1B990E80F10E047EFF3098C8CE85D
:100230000700144B93E8060091420FD039B12CE926
:10024000F00FC1F828C00CB40AF060FE0CBC1A60B4
:10025000D2F828C0BCE8F00F8CF309886FF0020ECA
:10026000704710B5084A1268914209D8074C54F8F3
:10027000214090E80F10A047EFF3098C8CE80F00A5
:1002800010BD000054C00720981700009817000008
:100290000AF0A4FC0C4B93E80600914210D0EFF357
:1002A000098C2CE9F00FC1F828C00CB40AF02EFE1E
:1002B0000CBC1A60D2F828C0BCE8F00F8CF3098897
:1002C0006FF0020E7047000054C007200AF0E6FEEF
:1002D000E0E7000009F082FE0AF0E0FEDAE7000045
:1002E000004870475808082003F0D8BE7047704790
:1002F00070470A6802F8010B0A607047FFFFFFFFB2
:100300000948804709480047FEE7FEE7FEE7FEE7A9
:10031000FEE7FEE7FEE7FEE7FEE7FEE704480549E5
:10032000054A064B70470000D93A0000CD00000096
:10033000A8490010B8110820A8510010B8090820D9
:1003400053EA020C00F069802DE9F04B4FF00006F3
:10035000002B1FBFB3FA83F503FA05F424FA05F660
:100360005E4012BF1643B2FA82F502FA05F4C5F1F7
:1003700020051EBF22FA05FC44EA0C04203556EA8B
:10038000044C4FEA144418BF641C4FF000084FF0AF
:100390000009904271EB030C39D3002919BFB1FA5F
:1003A00081F701FA07F6B0FA80F700FA07F6C7F10D
:1003B00020071EBF20FA07FC46EA0C062037B6FBD2
:1003C000F4FCA7EB0507103F07F01F0BCBF120064D
:1003D0000CFA0BFB2CFA06F644BFB3460026202F7E
:1003E000A4BF5E464FF0000B5BEA060C08BF4FF05F
:1003F000010B19EB0B09ABFB027C48EB0608C01B99
:1004000006FB02CC0BFB03CC71EB0C01C1E70B46E6
:10041000024641464846BDE8F08B13B54FF0000058
:100420004FF00001AFF30080BDE81C4070470000B2
:100430000FB41CB5084B06AA7B446946009005988A
:1004400000F0DDFB044600206946FFF752FF20461E
:100450001CBC5DF814FB0000B7FEFFFF2DE9F05F48
:10046000894604464FF0000ADFF824B1FB44C0F887
:1004700020A02046E168884700287DD0252806D0A6
:10048000D4E901219047206A401C2062F1E7002551
:100490005F462046E16888472028064607DB312E64
:1004A00005D2B81910F8200C08B10543F1E7A807E8
:1004B00001D525F00405C4F81CA00027C4F818A035
:1004C0002A2E09D0304603F022FE38B304EB870809
:1004D000303EC8F8186019E059F8041B204604EBB8
:1004E00087029161E1688847012F064618D1E069CB
:1004F000002820DA25F020051DE0D8F8180000EBD0
:10050000800006EB40003038C8F818002046E1684B
:100510008847064603F0FBFD0028EED1012F0AD0E4
:100520002E2E08D12046E16888477F1C0646022F00
:1005300045F02005C4DBA069002803DA404245F0FD
:100540000105A061E80701D025F01005A6B1A6F1CC
:100550004100192802D8203645F400654A46314644
:10056000204625604D46FFF7EBFD60B1012807D01E
:10057000ED1D25F0070000E007E000F1080978E72D
:1005800005F1040975E730467AE7206ABDE8F09F77
:10059000F8C400000FB400B58DB010A90990009107
:1005A0000B904FF0FF300A9000200C9006487844E2
:1005B0000690064878446A4607900F9909A800F00B
:1005C00045FB0DB05DF814FBBB060000D306000030
:1005D0002DE9FF5F1D464FF0FF3B91464FF00008AD
:1005E0005F46D5E90146A96901987F1C8847296AB9
:1005F000824688470028F6D1BAF1FF3F0CD0002E82
:1006000024F4C06419DD600614D5BAF12B0F09D0AB
:10061000BAF12D0F0ED103E0584604B0BDE8F09FAB
:1006200044F48064A96901987F1C8847761E82463D
:10063000002E02DDBAF1300F03D0B9F1000F26D041
:1006400032E0A969761E01987F1C44F40074884743
:10065000002E824605DDBAF1780F06D0BAF1580FA8
:1006600003D0B9F1000F10D01EE0B9F1000F02D095
:10067000B9F1100F18D1A969761E01987F1C24F4D6
:10068000007488478246102002E0082000E00A201B
:10069000814609E0A96908FB0908761E01987F1CBC
:1006A00044F4007488478246002E05DD49465046D2
:1006B00000F0B8FA0028EDDAE96901988847A0054A
:1006C00002D46FF00100A8E7E00725D1600613D53A
:1006D000600502D5C8F1000000E0404629680A1D07
:1006E0002A600968220501D5087015E0220701D5A6
:1006F000088011E008600FE02868011D296000688B
:10070000210502D580F8008006E0210702D5A0F877
:10071000008001E0C0F8008038467EE72DE9F04710
:1007200016468846814602F14C07384603F0F6FC2F
:10073000304600F0AFFB18F8010B61280AD0722890
:1007400002D077283FD102E00125002405E00225F0
:10075000042402E0082448F2020518F8010B2B28B3
:1007600006D0622809D018F8010C74280AD00BE0D2
:1007700045F0030544F00204EFE745F0040544F0BA
:100780000104EAE744F010044846214603F036FD30
:10079000411C18D00021316171604FF40071F56087
:1007A000F1617061200704D530460222002100F07B
:1007B0007DFA306D40F001003065384603F0D4FC1E
:1007C0003046BDE8F0870026F7E72DE9F0411546F1
:1007D0000E460746204C204603F0A0FC2A46314630
:1007E0003846FFF79BFF0546204603F0BDFC284630
:1007F000BDE8F0812DE9F0410E468046164D2846B1
:1008000003F08CFC154C206DC10704D0410804D0C6
:1008100020F00104F7E7224612E0542000F0D3F95B
:10082000070017D0206D47F00101084354212065CF
:10083000384600F01BF907F14C0003F07FFC3A4604
:1008400031464046FFF76AFF0446284603F08CFC19
:100850002046CDE70024F8E774C00720B808082038
:1008600010B50446AFF300802046BDE81040FFF706
:100870008BBC40EA010310B59B070FD1042A0DD3AE
:1008800010C808C9121F9C42F8D020BA19BA884271
:1008900001D9012010BD4FF0FF3010BD1AB1D307B0
:1008A00003D0521C07E0002010BD10F8013B11F8E6
:1008B000014B1B1B07D110F8013B11F8014B1B1B0F
:1008C00001D1921EF1D1184610BD2DE9F041054627
:1008D00090460E460020044600E0641C44450BD2BE
:1008E000285D00F07AF90746305D00F076F9381A95
:1008F00002D1295D0029F0D1BDE8F08110B5431C7B
:1009000002E010F8011B71B18107FAD14FF00132FA
:1009100002C88C1A8C4314EAC211F9D0C01A0A0614
:1009200003D0C01E10BDC01A10BD0A0401D0801E25
:1009300010BD0902FCD0401E10BD032A40F23080D9
:1009400010F0030C00F0158011F8013BBCF1020F10
:10095000624498BF11F801CB00F8013B38BF11F891
:10096000013BA2F1040298BF00F801CB38BF00F8A8
:10097000013B11F0030300F02580083AC0F0088025
:1009800051F8043B083A51F804CBA0E80810F5E709
:10099000121D5CBF51F8043B40F8043BAFF30080EC
:1009A000D20724BF11F8013B11F801CB48BF11F861
:1009B000012B24BF00F8013B00F801CB48BF00F831
:1009C000012B704710B5203AC0F00B80B1E81850E9
:1009D000203AA0E81850B1E81850A0E81850BFF429
:1009E000F5AF5FEA027C24BFB1E81850A0E81850C8
:1009F00044BF18C918C0BDE810405FEA827C24BF1C
:100A000051F8043B40F8043B08BF7047D20728BFA9
:100A100031F8023B48BF11F8012B28BF20F8023BF8
:100A200048BF00F8012B70474FF000020429C0F0C6
:100A3000128010F0030C00F01B80CCF1040CBCF110
:100A4000020F18BF00F8012BA8BF20F8022BA1EB62
:100A50000C0100F00DB85FEAC17C24BF00F8012B47
:100A600000F8012B48BF00F8012B70474FF000023F
:100A700000B5134694469646203922BFA0E80C5094
:100A8000A0E80C50B1F12001BFF4F7AF090728BF6F
:100A9000A0E80C5048BF0CC05DF804EB890028BFEB
:100AA00040F8042B08BF704748BF20F8022B11F014
:100AB000804F18BF00F8012B704700004FF0013C39
:100AC00050F8042B51F8043B9A4221D1A2EB0C03BD
:100AD000934313EACC1317D150F8042B51F8043B7D
:100AE0009A4215D1A2EB0C03934313EACC130BD11A
:100AF00050F8042B51F8043B9A4209D1A2EB0C03A5
:100B0000934313EACC13DBD04FF00000704700BFD3
:100B1000D01A01BAB1FA81F101F0180122FA01F0FC
:100B2000CB40C1F12001DBB2C0B2C01A2CFA01F3F4
:100B3000D11A914311EAC311E6D170470B3020F06E
:100B4000070070472DE9F04117460E460446FFF7AF
:100B5000F5FFA042054633D9002F1CBF06F10C005B
:100B600003F0DCFA30467468F4B12168A94217D367
:100B700005F1080291423CBF6168416007D3626899
:100B800061194A602268521B0A6041602560002F8B
:100B90001CBF06F10C0003F0E7FA201DBDE8F08150
:100BA00020466468002CE0D12946304600F0A9F9BF
:100BB0000028D7D1002F1CBF06F10C0003F0D4FA97
:100BC0000020BDE8F08110B5044600F091F90168FD
:100BD0002046BDE810400122B4E710B5044600F0FD
:100BE0007FF90068005DC00602D504F1200010BD49
:100BF000204610BD01694A1C02610878704700B5A3
:100C00008FB0CDE901310021059105497944CDE945
:100C1000031011466846FFF721FC0FB000BD00002D
:100C2000E5FFFFFF3A2800D2303820F02002412AA9
:100C300001D3A2F13700884201D34FF0FF30704753
:100C4000026811441378016018467047D160054965
:100C500079445161044979441162002111611146BE
:100C600000F0E0B9EDFFFFFFB7030000426842B1BA
:100C7000016811F8013B23B1521EC0E90012184669
:100C800070470121C160881E704742685AB1C3682D
:100C9000016843B983688B4205D0491E521CC0E9E4
:100CA0000012002070474FF0FF3070472DE9F041EF
:100CB000044616460D464769007B80072ED038460D
:100CC00003F08AFA50BB3EB3012E02D0022E25D18A
:100CD00004E0204600F060FB05441DE0384603F0C8
:100CE00066FAE168002841F01001E16005DA20466B
:100CF00000F058F80120BDE8F081C9030BD5626807
:100D0000E16A914200D81146A26911442269891A08
:100D1000814200DD08460544002D01DA0220EAE7A1
:100D2000E16A6068E268814206D29103E06203D51D
:100D300022F4003141F01002A6690027AE4213DC14
:100D4000E16A814201D90B4600E0034603EB060C41
:100D50002369ACEB030CAC4506DD814201D98C461E
:100D600000E084469C4505D1A760276042F0200042
:100D7000A5620DE0AD1BE669AE1B8142A66000D9FD
:100D80000846C01A281A20605819606022F0200016
:100D900003490840E060002084F84870ABE7000099
:100DA000BFCFD7FFC16821F4001141F08001C160BD
:100DB00000218160016070472DE9F04781461446AB
:100DC0000E464FF0FF383248D5685769054209D0C2
:100DD0003846A16903F048FA002811DB2C48C043CB
:100DE0000540E5602B4632464946384603F056FA40
:100DF000A16920F00042B21A11440028A16103D079
:100E00002046FFF7CFFF4046BDE8F08770B50446A7
:100E10000569C06A6168884200D80846E16821F423
:100E20002011E160C90312D5A84208D02246411B17
:100E30002846FFF7C1FF10B14FF0FF3070BD002012
:100E4000E562C4E90150E06820F48030E0600020F1
:100E500070BD10B50446C06820F02000E060A16AB3
:100E6000A06988420DD02046FFF7D0FFE06820F44B
:100E7000405040F01000E060A06AA0612069E0628C
:100E8000606044F24001E0688843E06010BD00000B
:100E9000100002002DE9F04704464FF000094FF022
:100EA000FF37C568D4E90486A80707D02046FFF7B6
:100EB000ADFF304603F066F9002802DA3846BDE897
:100EC000F087280502D5404600F098F84C212046CE
:100ED000FFF7CCFD206D20F0010020654846EEE7CD
:100EE00010B500F08AFB001D10BD00BF0DB2000060
:100EF00010B5FFF7F5F9083010BD7047704770471F
:100F0000704738B504460A4600206946AFF30080B2
:100F1000002808BF38BD02460099204600F072FB49
:100F2000012038BD012000F0C7BBF8B5AFF3008049
:100F3000054600200C46102000BF0646A819A04216
:100F40000DD9324669460020AFF30080070008BF84
:100F500000F0B2FB0098A04218BF0546C419FFF785
:100F6000C7FF05600746F01D20F007004619284618
:100F700000F00AF8B44208BFF8BDA21B3146386839
:100F8000BDE8F84000F03EBB00210160C0E901105F
:100F90000C3003F0D3B81020704770B516460D46DC
:100FA000041F002808BF70BD002E1CBF05F10C00F7
:100FB00003F0B4F82B465868002818BFA04238BF89
:100FC0000346F8D31968CA18A24218BF5C6003D15F
:100FD00022681C461144196021680A19824218BF10
:100FE000606004D142686260006808442060002E9E
:100FF0001CBF05F10C0003F0B7F870BD10B5044636
:10100000FFF776FF01682046BDE810400122C4E7E3
:1010100010B50446FFF764FF0068005D00F00100B2
:1010200010BD00002DE9F34F4FF0000A0C46564664
:101030008DB001200C9001F10C000B9062690B98AF
:1010400001219047051E2DD0252D2CD0216A8847DF
:10105000C0B162690B9801219047216A8847002836
:10106000F7D16269411E0B98904700E0761CA16998
:101070000D988847216A88470028F7D1E1690D98C3
:101080008847DBE7A1690D988847A842074601D148
:10109000761CD3E7E1690D9888477F1C02D1BAF12D
:1010A000000F6FD06CE162690B9800273D4639460E
:1010B00090472A2804D162690B98012190470125A5
:1010C000DFF8D08262690B9801219047A0F13001CE
:1010D0000A290AD24745E5DC07EB870100EB410707
:1010E000303FDFD445F01005ECE7E90601D46FF09E
:1010F00000476C280AD04C2814D0682815D06A28DC
:101100000DD074281CD07A281AD01DE062690B9883
:10111000012190476C2802D045F0040514E045F009
:1011200002050DE045F020050AE062690B980121F7
:101130009047682802D045F0080505E045F40065B1
:1011400062690B9801219047C4E9015765283DD099
:1011500019DC58287AD00CDC452837D004DC252847
:1011600026D041289ED131E046282FD0472899D15A
:101170002CE05B2877D0612828D063287CD06428B5
:1011800023D15AE0F7E06F2848D008DC66281DD04C
:1011900067281BD0692821D06E2816D127E0702837
:1011A00045D0732868D0752847D078280DD14DE0F8
:1011B000A1690D988847252805463FF469AFE16984
:1011C0000D9888476D1C3FF46AAFD9E00D9923460E
:1011D0006A466FF00100AFF30080C6E045F04000C2
:1011E00023464FF000026060A80736D43EE0E807CF
:1011F0007FF447AF2068011D21600068290501D5F3
:1012000006701BE7290701D5068017E7A90703D554
:10121000F117C0E9006111E706600FE745F04000F3
:1012200023464FF008026060A80716D41EE040F67F
:101230000E0125EA0100606016E045F040002346FB
:101240004FF00A026060A80707D40FE045F04000A5
:101250006060A80708D5234610220D996FF00100A1
:10126000AFF3008081E007E0102223460D996FF074
:101270000100FFF7ADF978E04FF0000963284F4611
:10128000C8464B46CB4602D05B2807D039E02079D0
:10129000C00601D40120A060012732E06269D4F8C1
:1012A0000CB00B98012190475E2807D14FF001093F
:1012B00049466269D4F80CB00B989047216939B956
:1012C00000210A4603AB43F82120491C0829FADB18
:1012D000D8B3216949B308F1010862690B9801216B
:1012E00090475D28F4D1B9F1000F09D0002003A97F
:1012F00051F82020D24341F82020401C0828F7DB79
:1013000003AB2069002820794FEA40701ED05B466D
:101310002246CDF80080CDE901970D9900286FF0A5
:10132000010020DAAFF300801FE0C11703AA00EB31
:10133000D1614B1121F01F0102EB8302411A1368A6
:101340000120884003431360C7E719E00D99224646
:1013500000286FF00100009702DAAFF3008004E08C
:10136000AFF3008001E0AFF3008000280ADA401CF0
:1013700006D10C9820B14FF0FF300FB0BDE8F08FD0
:101380005046FAE7E90701D10AF1010A06440020B4
:101390000C9053E6CCCCCC0C10B50146C26890073B
:1013A00003D0900607D5886A0AE0FEF79DFF012169
:1013B0000160881E10BD8B69486818440B69C01A0B
:1013C00091F848301BB191F84910401A10BD110333
:1013D000FCD50028FADD401E10BD000010B56548A0
:1013E0005421FFF743FB64485421FFF73FFB634858
:1013F0005421FFF73BFB62485E49624A624B016041
:101400005D4810605D4A1A60431C0B65511C016504
:101410000120106557484C3002F090FE56484C3081
:1014200002F08CFE55484C3002F088FE574802F01E
:1014300085FE58484F4A56A17844FFF7C6F920B9AF
:10144000544878440A3800F030F954484A4A52A1C6
:101450007844FFF7BAF920B9504878440A3800F0C8
:1014600024F94F48454A4CA17844FFF7AEF920B91A
:101470004B4878440A3800F018F940233D48DC0016
:101480000021224600F0DDF820B14248784454386B
:1014900000F00BF9384822464023002100F0D1F833
:1014A00020B13E487844543800F0FFF833482246D3
:1014B0001023002100F0C5F8002806D038487844F1
:1014C000BDE81040563800F0F0B810BD2B482DE9AB
:1014D000F041006D2D4E20F00104304602F01EFE5A
:1014E000244D4C35284602F019FE2248FFF7D2FC65
:1014F000284602F039FE2846AFF300801E4D4C35D9
:10150000284602F00BFE1C48FFF7C4FC284602F0F8
:101510002BFE2846AFF30080184D4C35284602F0CC
:10152000FDFD1648FFF7B6FC284602F01DFE2846D2
:10153000AFF3008014E0206D20F0010504F14C00B1
:10154000074602F0EBFD2046FFF7A4FC384602F008
:101550000BFE3846AFF300802046FFF74FFD2C46C8
:10156000002CE8D1304602F0FFFD0848AFF30080C0
:10157000BDE8F081B80808200C090820600908209F
:101580002400001078C007202800001074C0072035
:101590007200000044AE00007700000033AE00008F
:1015A00023AE000001491820ABBEFEE72600020072
:1015B0007546FEF795FEAE4605006946534620F097
:1015C0000700854618B020B5FEF7A8FEBDE820400C
:1015D0004FF000064FF000074FF000084FF0000BEF
:1015E00021F00701AC46ACE8C009ACE8C009ACE8A2
:1015F000C009ACE8C0098D46704710B5FEF770FE13
:10160000203010BD30B404468C464368002B18BF10
:10161000634538BF1846F8D303681844604507D0BF
:10162000C81C20F0070000F1040CACEB0100121AFA
:101630002146CCF8002030BC00220CF10400FFF75A
:10164000ACBC2DE9F04704461E4690460D46C768DF
:101650004C30814602F062FDB80714D0780212D4F3
:101660004046B8F5807F09D0B0F5007F06D0B8F5C8
:10167000806F08D1012604F1240506E0701E6FF08A
:101680007F41884201D3012409E02561E66165605C
:10169000E06820F4706040EA0800E06000244846FA
:1016A00002F062FD2046BDE8F08710B500F012F8A8
:1016B000BDE8104000F008B810B500F025F8BDE80E
:1016C000104000F001B87047002801D0FFF76ABF52
:1016D0007047000010B5014602A000F03DF801205F
:1016E00010BD000053494752545245443A205265B8
:1016F0006469726563743A2063616E2774206F7049
:10170000656E3A200000000010B5012805D00021C8
:1017100003A000F021F8012010BD09A1F8E70000A6
:1017200053494752544D454D3A204F7574206F66CA
:101730002068656170206D656D6F72790000000032
:101740003A2048656170206D656D6F727920636F16
:10175000727275707465640070B505460C460A2097
:1017600000E06D1C00F011F835B128780028F8D1A0
:1017700002E0641C00F009F814B120780028F8D1C8
:10178000BDE870400A20AFF3008008B569468DF8C7
:1017900000000320ABBE08BD0000000070B5044689
:1017A0000D46406805F00FF9104EB0421CD160683C
:1017B00000F5FE7005F007F9B04215D16068001D14
:1017C00005F001F928606068083005F0FCF86860F1
:1017D00060680C3005F0F7F8A8606068103005F01C
:1017E000F2F8E860012070BD002070BD4A53464BFE
:1017F000F0B50446C1680320B1FBF0F789B00026BC
:101800005FE000BFA16806EB46000D18D4E90001B7
:1018100001228368681C9847002855D069462046F5
:10182000FFF7BCFFF0B3D4E9000101228368A81CD4
:101830009847002848D020690099884202D3401C6C
:1018400008D139B9E81CC4E90410781E864201D1D8
:10185000A0686061204604A9FFF7A0FF18B10499B1
:10186000009888422CD0D4E90001012283682846E0
:101870009847002828D0226861680298D36801221E
:101880009847002820D0039830B1D4E90021D368CC
:1018900001229847002817D04FF400716068FFF7C5
:1018A000C3F800E00CE0D4E900010122C368681C21
:1018B0009847002808D0607E40F00400607602E07F
:1018C000761CBE429ED3012009B0F0BD00BF0121AD
:1018D0008140054A52E8002F22EA0101024B43E809
:1018E0000012002AF3D1704734C007202DE9F05FC1
:1018F00080460C466048007900F0020018B94FF0AD
:10190000FF30BDE8F09FB8F1070F72D2DFE808F0B2
:10191000AD04677286ADAE004FF0A040406820F085
:1019200001095648006820F480654FF0A0408068A7
:1019300020F0150A4FF0A040006820F010064FF08C
:10194000A040806920F4807B04F0030010B10128DE
:1019500004D100E005E04BF4807B02E06FF003006F
:10196000CFE700BF04F00400042806D149F00109C4
:1019700045F480654AF0150A00BF00BF04F010006E
:1019800008B146F0100604F0200010B904F0400041
:1019900010B16FF00300B4E74FF0A040C0F818B0EA
:1019A000C0F80490354805604FF0A040C0F808A08A
:1019B0000660D0F8000220F0070704F0800008B1AC
:1019C00047F0020704F4807008B147F0040704F4FC
:1019D000007008B147F007072948076049E0274829
:1019E000006820F002050CB145F0020523480560AF
:1019F0003FE03AE02148006820F001054FF0A040A8
:101A0000006820F001061CB145F0010546F0010612
:101A10001A4805604FF0A04006602AE004F001007B
:101A200078B1164805684FF0A040D0F8000120F0CA
:101A300001001249086004F0D1FF4FF0A040C0F847
:101A4000005104F0020078B10C4805684FF0A04046
:101A5000D0F8000120F002000849086004F0F2FF0D
:101A60004FF0A040C0F8005103E000BF6FF003004A
:101A700047E700BF002044E7F405082000010050BC
:101A80000002005002466FF00300704770B500245A
:101A9000B2E05B4801680120A0400140002975D0F8
:101AA000584901EB4415564840680121A1400840BF
:101AB00000287DD00120A0405149886004EB8400BB
:101AC000514901EB8000C06804EB84014E4A02EBEF
:101AD0008101896888425AD004EB8400114601EBE9
:101AE0008000806804EB840102EB8101C968461A1A
:101AF000B6F5805F01D340F6FF7604EB84004249DF
:101B000001EB8000C068304404EB84013E4A02EBE4
:101B10008101C860E86800F0806098B104EB84003F
:101B2000114651F82000286004EB840051F8201081
:101B3000E868C0F3814006FA00F0084404EB840131
:101B400042F82100E86800F00060B8B104EB8400BE
:101B50002D4901EB80004068686004EB840001EBD4
:101B600080004168E868C0F3415006FA00F008447C
:101B700004EB8401244A02EB81014860E86866F3C3
:101B80000B00E860286940F00100286133E0E0B212
:101B9000FFF79CFE04EB84001B4901EB8000006909
:101BA00048B304EB84000A4602EB8000016900E0C0
:101BB00002E0012088471EE01148C0680121A140D1
:101BC0000840C0B100202861E860E0B2FFF77EFE67
:101BD0000120A0400A49086104EB84000A4901EB96
:101BE0008000006938B104EB84000A4602EB8000F3
:101BF000016902208847641C082CFFF44AAF70BDBD
:101C000000400050004100503006082070B500240C
:101C10000E4800680D49091D096800EA01050B48D6
:101C20000830056005F0080008B144F0010405F033
:101C3000800008B144F0020434B10548006818B1CE
:101C4000034801682046884770BD0000E00F00503F
:101C5000F40508202DE9F05F0446884691461E46AB
:101C6000DDE90BAB0A9F082C03DB4FF0FF30BDE82A
:101C7000F09F204601F014FF401C10B94FF0FF30D8
:101C8000F5E704EB84002D4901EB8000C0F810B0AB
:101C90002B4901EB441500202861E8600120A04099
:101CA000284988600120A04008610020A860012028
:101CB000086300BF2348006B00F001000028F9D042
:101CC00004EB84001D4901EB80008660B6F5805F5F
:101CD00001D340F6FF76384666F30B000746C5F899
:101CE0000080C5F8049007F0806020B1C7F3814000
:101CF00006FA00F0804407F0006020B1C7F34150BD
:101D000006FA00F0814404EB84000C4941F820807D
:101D100004EB840001EB8000C0F8049004EB840025
:101D200001EB8000C660EF60C5F810A00AF001006A
:101D300010B92046FFF7CAFD002098E730060820BA
:101D4000004100500040005010B50446082C02DB52
:101D50004FF0FF3010BD2046FFF7B8FD054901EBFD
:101D60004410006920F001000A4602EB44110861AA
:101D70000020EFE7004100500146082901DB002068
:101D8000704701EB8100064A02EB8000C068054BFA
:101D900003EB4112D268C2F30B02801AF0E7000095
:101DA000300608200041005010B526480068401C4D
:101DB0002449086008460068012801D9002010BDA8
:101DC0002148006840F000501F49C439C1F8C400E0
:101DD000002419E000201D4A02EB4411086104EBC5
:101DE00084011B4A42F8210004EB840102EB8101CB
:101DF000486004EB840102EB8101886004EB8401FC
:101E000002EB8101C860641C082CE3D3FF20114958
:101E1000886008611A2001F0F7FF1A2000280DDB06
:101E200000BF00BF00F01F02012191404209920053
:101E300002F1E022C2F8001100BF00BF00BF002085
:101E4000BDE7000038C00720C4C00F40004100506B
:101E5000300608200040005010B502460F2A03D873
:101E6000082A01D3012902D94FF0FF3010BD39B142
:101E700009480068A2F1080301249C40204306E0C1
:101E800005480068A2F1080301249C40A043024BCE
:101E900018600020EAE70000C4C10F4010B51648E2
:101EA000006810B94FF0FF3010BD13480068401EA5
:101EB000114908600846006808B10020F4E70F489F
:101EC000006820F000500D49C439C1F8C4001A2040
:101ED00000280BDB00F01F0201219140084A430952
:101EE00042F82310BFF34F8FBFF36F8F00BF1A204C
:101EF00001F08AFF0020D7E738C00720C4C00F4098
:101F000080E100E030B53AB101238B40064C20253A
:101F100005FB0044A36106E001238B40024C202511
:101F200005FB0044E36130BD00C0092040B1094910
:101F3000096841F40041074AC43AC2F8C41007E0F6
:101F40000449096821F40041024AC43AC2F8C410A5
:101F500070470000C4C00F4001460348202202FB26
:101F6000010040697047000000C0092030B55AB137
:101F70000B4C04EB40131B6801248C402343084D99
:101F800005EB401423600AE0054C04EB40131B688A
:101F900001248C40A343024D05EB4014236030BD67
:101FA00000C009200148006870470000B4C100006B
:101FB0001CB5002000900E48807A00F0020028B185
:101FC0000B486A461021036801209847BDF80000BD
:101FD000012121EA5001019861F301000190BDF84F
:101FE00000008108019861F38200019001981CBDF6
:101FF00080DB072038B5002000900848807A00F088
:10200000020028B105486A4601210368084698473E
:10201000BDF80000C0F38004204638BD80DB0720F7
:10202000014611B96FF0040070470E48007900F0C6
:10203000020010B94FF0FF30F6E74FF0A040026CFD
:10204000100A48710A714FF0A040426C100AC87023
:102050008A704FF0A040826C100A48700A7000200D
:10206000E2E70000F40508201048007900F00200C3
:1020700008B9002070470E4802684FF0A040D0F821
:102080001401904201D10020F4E70A4850F83210C0
:1020900001F0804010B10848084010B14FF0FF3007
:1020A000E8E7C1F30A00C01EE4E70000F4050820D9
:1020B00018010050B0DB07200000901B01466FF0B4
:1020C0000300704730B50246946A24682025AD5C51
:1020D000EC4004F0030333B1012B06D0022B06D0F1
:1020E000032B08D105E0042106E0012104E00221D0
:1020F00002E0082100BF00BF00BF024C2468B4FB0F
:10210000F1F030BD3CC0072001466FF0030070477E
:1021100008B502480068009008BD00008CC10000AE
:1021200008B502480068009008BD0000B0C100007A
:10213000024602B111B96FF0040070470748807A77
:1021400000F0010038B90548026041600020034BEF
:102150001881012098720020EFE7000080DB072043
:102160003EB505465448007900F0010008B1002052
:102170003EBD3620019001A901A8504A126890473F
:1021800025210298B1EB106F01D1012400E0002459
:1021900000204B4A0090517910790023012200F071
:1021A0007DF90020464A0090D179907900230122E0
:1021B00000F074F90020424A0090517A107A00230E
:1021C000012200F06BF900203D4A0090D17A907A0C
:1021D0000023012200F062F90020394A0090517B6F
:1021E000107B0023012200F059F90020344A0090AE
:1021F000D17B907B0023012200F050F90020304A6F
:102200000090517C107C0023012200F047F900204F
:102210002B4A0090D17C907C0023012200F03EF9F3
:1022200084B900200346012210210090104600F0DE
:1022300035F900200346012211210090104600F0DC
:102240002DF915E0002003460246102100900120E0
:1022500000F024F9002003460246112100900120DD
:1022600000F01CF9164A517810780122FFF77EFE23
:1022700014481549886034B90846C06820F00F003A
:10228000401DC8600BE01048006920F470200E4922
:1022900008610E48006C40F480700C4908640648E0
:1022A0000021016041608160C160056044710120CE
:1022B0000149087100205BE7F405082028C00720C9
:1022C00014C007200501155000C0024000C00920BD
:1022D000014905F0C1B90000880100102DE9F04165
:1022E00007460D4614461CB96FF00400BDE8F081A6
:1022F0003048007900F0020010B94FF0FF30F5E7E8
:102300002C48407901281FD12B4AD178907801229E
:10231000FFF72CFE20214FF0FF3007F073FE042161
:10232000062007F06FFE0521384607F06BFE0521F9
:10233000284607F067FE09F021FE04F0B1FB20807B
:1023400009F01CFE0020D1E745EA07204FF0A0412C
:1023500088620120486207F013FD064600BF4FF077
:10236000A040406B00F0010000B910E007F008FD4C
:10237000821B124800884FF4FA71484310490988BB
:102380004FF4FA73594300EB11408242E7D300BF88
:102390004FF0A040406B00F0010040B900204FF02A
:1023A000A04148620846006B208000209EE76FF045
:1023B00002009BE7F405082014C0072034C1000088
:1023C00036C100002DE9F04107460C4615462F485E
:1023D000007900F0020018B94FF0FF30BDE8F0813D
:1023E0002A484079012822D1294AD17890780122BF
:1023F000FFF7BCFD20214FF0FF3007F003FE042162
:10240000052007F0FFFD0521384607F0FBFD0521FB
:10241000204607F0F7FD0221084607F0F3FD1021E2
:10242000284607F0EFFD09F0A9FD0020D6E744EAB1
:1024300007204FF0A04188620846C56207F0A0FC63
:10244000064600BF4FF0A040406B00F0010000B90D
:1024500010E007F095FC821B0E4800884FF4FA71DB
:1024600048430D4909884FF4FA73594300EB114072
:102470008242E7D300BF4FF0A040406B00F0010064
:1024800008B90020AAE76FF00200A7E7F4050820CA
:1024900014C0072034C1000036C100002DE9F0410E
:1024A00004460D461646069F00212A46102D03DBE2
:1024B000A5F11000C2B20121DFF8D8C00CEBC400B6
:1024C00050F821004FEA42084FF0030C0CFA08FCC8
:1024D00020EA0C00DFF8BC8008EBC40C4CF82100AB
:1024E000C4460CEBC40050F821004FEA420C06FA37
:1024F0000CFC40EA0C0008EBC40C4CF82100254809
:10250000403000EBC40050F821004FEA42084FF081
:10251000030C0CFA08FC20EA0C0C1E48403000EBBF
:10252000C40040F821C01B48403000EBC40050F804
:1025300021004FEA420C03FA0CFC40EA0C00DFF8E1
:1025400054C00CF1400C0CEBC40C4CF82100012FD2
:102550000ED11048683050F824C00120A8404CEA41
:102560000000DFF830C00CF1680C4CF824000DE0DE
:102570000848683050F824C00120A8402CEA000028
:10258000DFF810C00CF1680C4CF824000020BDE806
:10259000F081000000C0024038B5044624B1012C8F
:1025A0005FD0022C5CD117E02F48807A00F0010048
:1025B00010B94FF0FF3038BD2B48807A20F0020070
:1025C000294988724FF40060088108460289002179
:1025D000436801209847EEE72348807A00F0010025
:1025E00010B94FF0FF30E6E71F48807A00F0020094
:1025F00008B10020DFE71C486A4602210368012079
:102600009847BDF80000B0F5005F02D06FF00300FE
:10261000D1E715486A460321036801209847BDF8B1
:1026200000004FF6F071084045F69041884202D014
:102630006FF00300BFE700200B49088108460289BC
:10264000002143680120984710B14FF0FF30B2E7F6
:102650000548807A40F00200034988720020AAE70A
:1026600000BF6FF00300A6E780DB07202DE9F041F3
:1026700007463FB1022F05D0012F03D06FF00400B1
:10268000BDE8F08127B1012F33D0022F75D133E09F
:102690001C2000280BDB00F01F02012191406E4A34
:1026A000430942F82310BFF34F8FBFF36F8F00BF72
:1026B0006A48006840F080406849C439C1F8C400E5
:1026C0004FF400404FF0A04108600A2400E0641E6F
:1026D000002CFCD16148006820F080405F49C4397B
:1026E000C1F8C4005E48007920F002005C4908711E
:1026F000AEE06FF00300C3E75948007900F0010035
:1027000010B94FF0FF30BBE75548007900F00200E8
:1027100008B10020B4E75148006840F080404F49BC
:10272000C439C1F8C4004FF44F404FF0A0410860D5
:1027300078204C4908600A2400E0641E002CFCD17B
:1027400002204FF0A0410860B02048604FF4C06004
:10275000486143F20F7008611220C86048F23C00E3
:1027600008620A2400E0641E002CFCD13E48066882
:102770003E48864202D93C251AE066E03C48864243
:1027800001D9382514E03B48864201D924250FE0C1
:102790003948864201D91C250AE03848864201D9C9
:1027A000142505E03648864201D90C2500E00025B5
:1027B0004FF0A04005624FF410702A4908604FF4B2
:1027C00000604FF0A04188610A2400E0641E002CE4
:1027D000FCD100204FF0A0418861086448648864FF
:1027E00004F0FCF804F02EF92020264908604FF68A
:1027F000FF70254908608820091F08601C200028F8
:1028000007DB00F01F0201219140204A430942F8F2
:10281000231000BF1C2000280DDB00BF00BF00F00C
:102820001F02012191404209920002F1E022C2F808
:10283000001100BF00BF00BF0020094988600846A2
:10284000007940F00200087102E06FF0030017E722
:1028500000BF002014E7000080E100E0C4C00F408A
:10286000F4050820000100503CC0072080D1F0088A
:1028700000E1F50500879303C00E1602002D31011B
:102880008096980000020050E80F005080E200E0BF
:1028900030B502460D461AB911B16FF0040030BDD3
:1028A0001548007900F0020010B94FF0FF30F6E74C
:1028B00012480468124850F8343006E01868106076
:1028C000586850600832083308390729F6D804E000
:1028D00018881080921C9B1C891E0129F8D809B108
:1028E00018781070601C0446042800D100240348A6
:1028F00004602846D3E70000F405082018010050C2
:1029000090DB072070B504460D46034A2946204651
:1029100000F080F870BD00000CC2000010B5044645
:102920000249204600F005FB10BD00000CC200006B
:1029300010B504460249204600F016FB10BD000009
:102940000CC2000010B5024800F01CFB10BD0000D6
:102950000CC2000008B5024800F02AFB009008BD38
:102960000CC2000010B5024800F038FB10BD00009A
:102970000CC2000010B504460249204600F0B0FB2E
:1029800010BD00000CC2000010B5044602492046EC
:1029900000F0FAFB10BD00000CC2000070B5044648
:1029A0000D46034A2946204600F0C8FC70BD0000D1
:1029B0000CC2000070B504460D46034A2946204665
:1029C00000F06AFD70BD00000CC2000070B5044646
:1029D0000D461646034B32462946204600F006FEB9
:1029E00070BD00000CC2000010B5024800F0A7FE48
:1029F00010BD00000CC200000148006870470000D4
:102A000000C2000008B502480068009008BD000040
:102A1000FCC100002DE9FF5F05460E4614464FF04D
:102A2000000902200390002002900190206C007B9E
:102A300000F0020020B94FF0FF3004B0BDE8F09F75
:102A4000E8B2142828D12068406820F002002168EC
:102A50004860002021684861206C007968B194F8D2
:102A60002C0018B12D21085DFFF76EF93420005DB0
:102A700018B13521085DFFF767F91C21606CFDF77F
:102A8000F5FF0020216C08712068406840F00200CA
:102A9000216848600020D0E7206C007910B16FF009
:102AA0000100CAE7E8B204287ED007DC88B101281B
:102AB0002AD0022850D0032808D17AE010287CD0F0
:102AC000112873D0122872D0132871D06FF0030030
:102AD000B3E72068406820F00200216848600020C9
:102AE00021684861206C806820F0FF00216C8860BC
:102AF000206C8068216C8860206C007B20F00400D2
:102B0000216C0873002098E72068406820F00200DC
:102B1000216848600020216848612068406820F0F2
:102B2000040021684860206C806820F0FF00216C60
:102B30008860206C806840F00100216C8860206C07
:102B4000007B40F00400216C08732068406840F06E
:102B500002002168486031E02068406820F00200EF
:102B6000216848602068406840F00400216848609F
:102B7000012021684861206C806820F0FF00216CF2
:102B80008860206C806840F00200216C8860206CB6
:102B9000007B40F00400216C08732068406840F01E
:102BA00002002168486090E004E006E057E065E03C
:102BB00068E000BF6FF006003FE700BF16B94FF0B6
:102BC000FF303AE72046FFF77DFA4FEA001B360157
:102BD000022722E04FF000081BE008F101007843D3
:102BE000BBFBF0F94E4505D1CDF804900397CDF825
:102BF00008801AE04E450AD90198301AA6EB09015F
:102C0000884204D9CDF804900397CDF8088008F1E4
:102C10000108B8F1FF0FE0D9BF1CFF2FDAD30198EC
:102C200010B94FF0FF3008E700BF0398C0B2216829
:102C300008612068006820F47F40216808602068EF
:102C400000684FF47F42029902EA0121084321689B
:102C50000860E8B2102801D10020EEE635E02046F9
:102C6000FFF730FA21680969C9B222681268C2F315
:102C70000722521C5143B0FBF1F0DEE6616C0E837B
:102C80000020DAE6206C007A012806D1206C8068EA
:102C900000F4C010B0F5002F02D04FF0FF30CCE6AA
:102CA000606810B94FF0FF30C7E636B962685178F6
:102CB00010780122FFF726F905E062685178107854
:102CC0000022FFF71FF90020B7E600BF206C007A52
:102CD000012872D105F4C01048B1B0F5002F25D0FD
:102CE000B0F5801F4AD0B0F5C01F64D115E0606810
:102CF00040B10020009062685178107800231A4695
:102D0000FFF7CCFB206C806820F4C010216C886039
:102D1000206C8068216C88604EE0206C806820F414
:102D2000C010216C88606FF00A0086E6206C806815
:102D300020F4C010216C88606068D8B10020009039
:102D400062685178107803230022FFF7A7FB6268BE
:102D5000517810780122FFF709F9626851781078EC
:102D60000122FFF7CFF8206C806840F40020216C2E
:102D7000886002E06FF00A005FE61DE0206C80686A
:102D800020F4C010216C8860606878B10020009049
:102D9000227D6368597818780323FFF77FFB206C46
:102DA000806840F48010216C886003E06FF00A00B6
:102DB00043E602E000BF00BF00BF206C007A02289B
:102DC0002DD105F4001018B1B0F5001F23D119E082
:102DD000206C806820F40010216C8860606868B105
:102DE00000200090227D6368597818780323FFF74C
:102DF00055FB206C8068216C886002E06FF00A004F
:102E00001BE60BE0206C806820F40010216C8860C9
:102E10006FF00A0011E66FF00A000EE600BF05F43D
:102E2000E060B0F5407F42D007DC68B1B0F5807F4C
:102E300017D0B0F5007F59D126E0B0F5806F43D0B0
:102E4000B0F5A06F52D148E02068006820F0300053
:102E5000216808602068006820F0C00021680860D0
:102E600047E02068006820F0300021680860206892
:102E7000006820F04000216808602068006840F089
:102E800080002168086034E02068006820F030008D
:102E9000216808602068006840F0400021680860F0
:102EA0002068006820F080002168086021E0206828
:102EB000006820F03000216808602068006840F059
:102EC000C0002168086014E02068006820F030002D
:102ED00040F01000216808600BE02068006820F0D6
:102EE000300040F020002168086002E06FF0070029
:102EF000A3E500BFC5F3053ABAF1040F0CD3BAF14C
:102F0000100F09D82068006820F00F00AAF1010115
:102F100008432168086002E06FF008008DE505F4C1
:102F20008020B0F5802F02D16FF0090085E50020E8
:102F300083E570B505460C46012D02D0022D0FD158
:102F40000FE0606C0068616CC8600020216C087143
:102F5000206C006818B1206C01680120884701E0EE
:102F600000BF00BF00BF70BD012802D0022805D1FC
:102F700005E04A6C12684B6C1A6101E000BF00BFAB
:102F800000BF704770B50446206C007B00F0040061
:102F900008B9002070BD3420005D28B13521085DDE
:102FA000FEF7EAFE054601E0606CC5682846F1E7D9
:102FB00008B50146086C0279009862F300000090A1
:102FC000086C4279009862F341000090086C8279A5
:102FD000009862F382000090009808BD70B5044626
:102FE0002068C66906F00300216808622068C0688E
:102FF00000F0020030B3606C0068616C09698842BF
:1030000020D9606C8068A0B1606C8168481C626CDB
:1030100090600D782068006800F00F0007280AD93A
:10302000606C8168481C626C9060087845EA0025F5
:1030300001E0606C058B20688560606C0069401C55
:10304000616C08612068C06800F00400002839D075
:103050002068806885B2606C0068616CC9688842CD
:1030600030D9606C406890B1606C4268501C636CF1
:10307000586015702068006800F00F00072806D916
:103080002912606C4268501C636C58601170606C4F
:10309000C068401C616CC860606CC068616C096885
:1030A00088420FD12068406920F00F0021684861F4
:1030B0000020216C0871206C006818B1206C016838
:1030C0000120884706F0010048B10121206C4171C0
:1030D000206C006818B1206C01680220884770BD20
:1030E00038B505460C46206C007B00F0010008B1A5
:1030F000002038BD206C05600020216C0871002183
:10310000206C4171206C81711C21606CFDF7AEFC5C
:1031100000200090627DA368597818780023FFF79B
:10312000BDF9E06840B100200090A27DE3685978C5
:1031300018780023FFF7B2F9206940B10020009011
:10314000E27D2369597818780023FFF7A7F994F8EE
:103150002C0010B93420005D08B1FEF725FE94F86C
:103160002C0020B12E21085D0021FEF775FE3420D1
:10317000005D20B13621085D0021FEF76DFE0120C3
:10318000216C08730020B4E770B505460C4635B1D4
:10319000022D04D0012D02D06FF0040070BD15B1D6
:1031A000022D7DD152E094F93C0000280BDB00F0A9
:1031B0001F0201219140604A430942F82310BFF3E6
:1031C0004F8FBFF36F8F00BFE0690068A1690843AC
:1031D000E1690860206C007968B194F82C0018B19E
:1031E0002D21085DFEF7B0FD3420005D18B13521BA
:1031F000085DFEF7A9FD002021684861216848624A
:1032000021680860216848602168086103202168FE
:103210000862E0690068A1698843E169086094F97F
:103220003C0000F0E3FD0020216C08710021206CBF
:103230004171206C81711C21606CFDF717FC206CC2
:10324000007B20F00200216C087372E0206C007B90
:1032500000F0010010B94FF0FF309FE7206C007BB9
:1032600000F0020008B1002098E7E0690068A16959
:103270000843E1690860A06A006820210A5D032113
:1032800091408843A16A08602021095D606A8840F6
:10329000A16A09680843A16A08600020216800E06B
:1032A00044E048610320216808620020216C087115
:1032B0000021206C4171206C8171206C007B40F0FA
:1032C0000200216C087301E0206880682068C068F3
:1032D00000F004000028F7D194F82C0028B12068F1
:1032E000406A40F00200216848623420005D28B145
:1032F0002068406A40F001002168486294F93C006F
:1033000000F074FD94F93C0000280DDB00BF00BF05
:1033100000F01F02012191404209920002F1E022D7
:10332000C2F8001100BF00BF00BF02E06FF0030051
:1033300034E700BF002031E780E100E0FEB505463C
:103340000E46144605B116B96FF00400FEBD206CA0
:10335000007B00F0040010B94FF0FF30F6E7206C5E
:10336000007910B16FF00100F0E70120216C0871C5
:103370000021206C4171206C8171606C008B45498B
:103380000860606C45600020616C8860606C06605D
:103390000020616CC860616C086194F82C00002802
:1033A00073D03420005D00286FD03620005D3E22AF
:1033B00002EA400040F45042521CA16B20680068B1
:1033C00000F00F00072801D9012000E000204FF491
:1033D000402303EA804023681B6803F00F03072B98
:1033E00001D9012300E000234FF4C00707EA43534B
:1033F000184340F00840CDE901210090226802F115
:1034000008013522105D33462A46FEF723FC401C96
:1034100010B94FF0FF3099E72E20005D4FF4F862AD
:1034200002EA801040F44842521C216B2068006878
:1034300000F00F00072801D9012000E000204FF420
:10344000402303EA804023681B6803F00F03072B27
:1034500001D9012300E000234FF4C00707EA4353DA
:10346000184340F00040CDE901210090216801F1AE
:1034700008022D21085D33460649FEF7EBFB401C90
:1034800030B94FF0FF3061E7FFE70F202168486156
:1034900000205BE730C00720FEB505460E46144607
:1034A00005B116B96FF00400FEBD206C007B00F082
:1034B000040010B94FF0FF30F6E7206C007910B12E
:1034C0006FF00100F0E70120216C08710021206CF1
:1034D0004171206C81710020616C4860606C856076
:1034E000606C06600020616CC860616C086194F8D3
:1034F0002C00002873D03420005D00286FD03620C7
:10350000005D3E2202EA400040F45042521CA16B92
:103510002068006800F00F00072801D9012000E0B2
:1035200000204FF4402303EA804023681B6803F027
:103530000F03072B01D9012300E000234FF4C0073C
:1035400007EA4353184340F00040CDE901210090C1
:10355000226802F108013522105D3346224AFEF747
:1035600079FB401C10B94FF0FF309DE72E20005D25
:103570004FF4F86202EA801040F44842521C216B7A
:103580002068006800F00F00072801D9012000E042
:1035900000204FF4402303EA804023681B6803F0B7
:1035A0000F03072B01D9012300E000234FF4C007CC
:1035B00007EA4353184340F00440CDE9012100904D
:1035C000216801F108022D21085D33462946FEF7E6
:1035D00041FB401C30B94FF0FF3065E7FFE70F209B
:1035E0002168486100205FE72CC00720FEB5054632
:1035F0000E4617461C460DB106B117B96FF0040010
:10360000FEBD206C007B00F0040010B94FF0FF30CD
:10361000F6E7206C007910B16FF00100F0E70120AF
:10362000216C08710021206C4171206C8171606CEB
:103630004660606C8560606C07600020616CC860EB
:10364000616C086194F82C00002873D03420005D70
:1036500000286FD03620005D3E2202EA400040F490
:103660005042521CA16B2068006800F00F00072830
:1036700001D9012000E000204FF4402303EA8040FC
:1036800023681B6803F00F03072B01D9012300E017
:1036900000234FF4C00C0CEA4353184340F0084099
:1036A000CDE901210090226802F108013522105D68
:1036B0003B463246FEF7CEFA401C10B94FF0FF30C1
:1036C0009EE72E20005D4FF4F86202EA801040F47D
:1036D0004842521C216B2068006800F00F00072848
:1036E00001D9012000E000204FF4402303EA80408C
:1036F00023681B6803F00F03072B01D9012300E0A7
:1037000000234FF4C00C0CEA4353184340F004402C
:10371000CDE901210090216801F108022D21085D09
:103720003B462946FEF796FA401C30B94FF0FF3071
:1037300066E7FFE70F2021684861002060E738B5A1
:103740000446606840B100200090626851781078AB
:1037500000231A46FEF7A2FE00200090A2685178CE
:10376000107800231A46FEF799FEE06840B1002069
:103770000090E2685178107800231A46FEF78EFE1A
:10378000206940B100200090226951781078002310
:103790001A46FEF783FE94F82C0010B93420005D21
:1037A00008B1FEF77BFB0020216C087338BD0000D8
:1037B00070B503460C46154603B114B96FF004000A
:1037C00070BD2648007900F0020010B94FF0FF30BC
:1037D000F6E7224881682248026829B9214850F852
:1037E00032101E48C46004E01C48C06820441B4ED0
:1037F000F06006E0186808605868486008310833CF
:10380000083C072CF6D804E018880880891C9B1C0B
:10381000A41E012CF8D81CB113F8010B01F8010B00
:1038200005F0010018B10D4881600020C8E70B4881
:10383000C068401E40F040400A4E06EBC206706071
:103840000020064EB060F060501C0246032800D1F4
:103850000022034802600020B2E70000F4050820BF
:1038600028010050D0DB072070B506460C461EB973
:1038700014B16FF0040070BD2448007900F002001C
:1038800010B94FF0FF30F6E72148006820F018002B
:103890004FF0A041C1F8000200201D49143108601A
:1038A0008906C1F8100204B9E5E722E00621304696
:1038B00001F05AF9C50D05F0200060B1144814302C
:1038C000006805F01F020121914008434FF0A0411C
:1038D000C1F814020BE00E481030006805F01F021A
:1038E0000121914008434FF0A041C1F81002B61DDC
:1038F000641E002CDAD10648006840F018004FF032
:10390000A041C1F800020020B5E70000F40508203E
:10391000000200502DE9F0410F460446164640686B
:103920004FF40071FDF780F8154D6068294607F0E7
:103930007BFD60682169001D07F076FD207E02286E
:1039400004D0042804D00020BDE8F0810D4900E037
:103950000D496068083007F067FD606839460C3033
:1039600007F062FD60683146103007F05DFD606869
:10397000294600F5FE7007F057FD0120E4E700003E
:103980004A53464B544F4F46444E455470B5054636
:103990000D48807A00F0020010B94FF0FF3070BD82
:1039A00015B1012D04D101E0012404E0212402E03D
:1039B0006FF00300F3E700BF034822461721436876
:1039C00001209847EBE7000080DB0720014611B992
:1039D0006FF0040070470F48007900F0020010B942
:1039E0004FF0FF30F6E708794A7940EA02204FF0BD
:1039F000A04210648878CA7840EA02204FF0A042C2
:103A0000506408784A7840EA02204FF0A04290645F
:103A10000020DFE7F405082070B505461F48807ACE
:103A200000F0020010B94FF0FF3070BD1B48008954
:103A300000F4006405F0030010B1012804D100E097
:103A400005E044F4005402E06FF00300EDE700BF2E
:103A500005F0040010B1042804D100E005E044F4AE
:103A6000807402E06FF00300DFE700BF05F008009C
:103A700008B144F4805405F0100008B144F48044C7
:103A800005F0200008B144F48064044804810289F0
:103A90000021436801209847C7E7000080DB07202A
:103AA00010B5014600BF0B4850E8002F01208840A8
:103AB000104020B1BFF32F8F4FF0FF3010BD012019
:103AC00088401043034C44E80003002BEBD1002056
:103AD000F4E7000034C0072020204B4908604B4821
:103AE000D0F8A00100F0200030B100BF46480068C7
:103AF00000F040000028F9D0032043499C390860B9
:103B000000204249C1F8A8013F490C31086001205A
:103B10003D49943908603E483C4984310860AA20F8
:103B20003A498C31086055200860012037498031BE
:103B30000860AA2035498C31086055203349C1F806
:103B40008C0000BF31488830006800F08060002899
:103B5000F8D003202D4980310860AA202B49C1F8F4
:103B60008C00552029498C31086000BF27488830D7
:103B7000006800F04070B0F1407FF7D12320234966
:103B8000A4310860AA202149C1F8AC0055201F4982
:103B9000AC31086001201D49A0310860AA201B49F2
:103BA000AC31086055201949C1F8AC0000BF174876
:103BB000A830006800F480600028F8D00320134982
:103BC000A0310860AA201149C1F8AC0055200F4966
:103BD000AC31086000BF0D48A830006800F44070A8
:103BE000B0F5407FF7D10B480849C4310860002088
:103BF0000649C1F8C8010846006820F4704040F446
:103C00008040086070470000A0C10F4000C00F4016
:103C100063000500DE87280400200349086048602F
:103C2000088188727047000080DB072008B50020FB
:103C30003C4908713C4A00905179107900231A469A
:103C4000FEF72CFC0020384A0090D17990790023AF
:103C50001A46FEF723FC0020334A0090517A107A6E
:103C600000231A46FEF71AFC00202F4A0090D17A52
:103C7000907A00231A46FEF711FC00202A4A009091
:103C8000517B107B00231A46FEF708FC0020264AD1
:103C90000090D17B907B00231A46FEF7FFFB0020AB
:103CA000214A0090517C107C00231A46FEF7F6FB57
:103CB00000201D4A0090D17C907C00231A46FEF71C
:103CC000EDFB1848407990B90020174A00905178D0
:103CD000107800231A46FEF7E1FB0020124A0090FC
:103CE000D178907800231A46FEF7D8FB17E0002021
:103CF0000D4A00905178107800231A46FEF7CEFB4B
:103D00000020094A0090D178907800231A46FEF7E7
:103D1000C5FB054A517810780022FEF727F90020EC
:103D200008BD0000F405082014C00720012200216E
:103D30000220FEF71BF9012211460220FEF716F9B8
:103D4000012202210846FEF711F901220321022077
:103D5000FEF70CF9012204210220FEF707F90122E7
:103D600005210220FEF702F9012206210220FEF7BA
:103D7000FDF8012207210220FEF7F8F828E022468C
:103D800000210220FEF7BEF884F001044FF47A709F
:103D900005F0A2FF0F480078D0B10F48006804F08A
:103DA0009AF990B1802004F07FF905460BA12846CE
:103DB000FCF73EFB2846FCF7A1FD064632462946A5
:103DC0000548006804F074F900BF0020014908703C
:103DD000D5E7000004000010000000105265636584
:103DE0006976653A3131310D0A000000002807DBA1
:103DF00000F01F0201219140024A430942F82310BA
:103E00007047000080E200E0002807DB00F01F029E
:103E100001219140024A430942F8231070470000F3
:103E200080E200E070B50024C1030FD520F4803596
:103E3000164905EBC50051F82000446814B120462E
:103E400002F060FC284601F089FB10E0810311D5E7
:103E500020F400350E49C5EBC50051F82000446838
:103E600014B1204602F04EFC284600F0E1FF0500A8
:103E700001D103E00425FCF737FA0560002514B1F1
:103E8000204602F04AFC284670BD00002C000010BD
:103E9000BC00001070B50025C1030FD520F480349C
:103EA000164904EBC40051F82000456815B12846B6
:103EB00002F028FC204601F0FFFB10E0810311D541
:103EC00020F400340E49C4EBC40051F820004568CA
:103ED00015B1284602F016FC204600F0ABFF0400A6
:103EE00002D405E06FF00304FCF7FEF961420160C3
:103EF00015B1284602F011FC204670BD2C000010C0
:103F0000BC0000102DE9F3410C460026751E6946E1
:103F1000009802F085FB002804DA404210F0FF040C
:103F200031D02DE01D4901EBC007F8794007386812
:103F3000466810D516B1304602F0E4FB386801F04F
:103F4000CBFB07462246009901F074FD040017D10F
:103F500047F4803517E016B1304602F0D3FB3868DD
:103F600000F06BFF07462246009900F06DFF040049
:103F700010D00B4AC7EBC70102EB810100208881FA
:103F8000FCF7B2F9046016B1304602F0C6FB2846D1
:103F9000BDE8FC8147F40035F5E70000B8C2000039
:103FA000BC00001070B50E460024C10310D520F4EB
:103FB0008035184905EBC50051F82000446814B15C
:103FC000204602F09FFB3146284601F017FE11E023
:103FD000810312D520F400350F49C5EBC50051F817
:103FE0002000446814B1204602F08CFB314628467C
:103FF00000F02CFF050006D000E00425FCF774F962
:1040000005604FF0FF3514B1204602F086FB2846CC
:1040100070BD00002C000010BC0000102DE9F04124
:104020000E4600251446C10311D520F480371949E6
:1040300007EBC70051F82000456815B1284602F08B
:1040400061FB22463146384601F024FF12E081032D
:1040500013D520F400371049C7EBC70051F82000F2
:10406000456815B1284602F04DFB224631463846D8
:1040700000F0EEFE040002D405E06FF00304FCF74C
:1040800033F96142016015B1284602F046FB204633
:10409000BDE8F0812C000010BC000010074810B5EE
:1040A000007848B107F0B4F930B1054900EB4000A1
:1040B00001EB4010603810BD024810BD0D0000102B
:1040C00060D807205808082010B5002A06DA22F028
:1040D0000042D21D22F00703102203E0D21C22F07E
:1040E00003030C2213B19C188C4201D9012010BD8E
:1040F000024401448360C0E90021C91AD0188842F3
:1041000002D810600246F9E70020106010BD303878
:104110000A2801D20120704700207047054909781C
:10412000002905D000684FF6FF71DFF80CC000DFF2
:10413000704700000D00001065AB0000084A10B584
:1041400011690346082900D3FEE7064800EB011079
:10415000491C1860116106F091FC012010BD00009F
:1041600000C0072000DB072004490978002903D09C
:104170000068DFF80CC000DF704700000D00001081
:104180008DAA000010B504466FF40040204420B111
:10419000012804D0022806D103E0002010BD002031
:1041A000FCE70020FAE72046FFF73CFEF6E710B5F3
:1041B00004466FF40040204420B1012804D00228B6
:1041C00006D103E0002010BD0020FCE70020FAE744
:1041D0002046FFF75FFEF6E701466FF40040084413
:1041E00020B1012804D0022806D103E00120704745
:1041F0000120FCE70120FAE70020F8E770B504464B
:104200000D4614B94FF0FF3070BD20783A281AD10E
:104210000FA12046FCF752FC10B948F20100F3E769
:104220000DA12046FCF74AFC10B948F20200EBE76A
:104230000BA12046FCF742FC10B948F20300E3E76B
:104240004FF0FF30E0E729462046FFF75BFEDBE753
:104250003A535444494E00003A5354444F55540085
:104260003A5354444552520070B504460D466FF41B
:104270000040204420B1012805D0022809D105E0E2
:104280004FF0FF3070BD4FF0FF30FBE74FF0FF30D5
:10429000F8E729462046FFF785FEF3E72DE9F041D0
:1042A00004460D4616461F466FF40040204420B1D8
:1042B000012806D0022808D105E04FF0FF30BDE804
:1042C000F0810020FBE70020F9E73246294620462E
:1042D000FFF7A4FEF3E7F8B506464FF0FF30009075
:1042E0000C46CD6909E022466946284600F028F8C8
:1042F000002809D0009840B16D1CE06C801CA842D9
:10430000F1D8009808B10020F8BD94F8360002F00A
:104310000EFB01462246284600F060F80028F3D044
:10432000681CE06194F83600032806D1A069401E9D
:10433000A061E06840F48070E06001203560F8BD65
:104340002DE9F041884605460146144602F12C004D
:1043500002F010FB06460146204600F02DFB002827
:1043600008D094F83600012806D0022824D003286B
:1043700029D00020BDE8F08105EB4500C0F34800DE
:10438000B0F5FF7F04D8616E084402F014FB0CE026
:10439000606E711C90F8FF71204600F00DFB002844
:1043A000E8D0606E007847EA0020E90701D00009F4
:1043B0000FE0C0F30B000CE0616E280601EBD0505B
:1043C00002F0F9FA05E0616E680601EBD05002F0E8
:1043D000FAFAC8F800000120CCE700002DE9F04708
:1043E0000D4606460146144602F12C0002F0C2FAC0
:1043F00081460146204600F0DFFA00280BD094F8F1
:10440000360029464FF00108012806D0022843D083
:10441000032847D00020BDE8F08706EB4600C0F334
:104420004807C5F30B05B7F5FF7F12D8606E384417
:1044300002F0C1FAF10702D065F31F1002E000F4A8
:10444000704028430146606E00EB070006F0E8FF6D
:104450002EE0F007606E06D090F8FF1165F31F1193
:1044600080F8FF1101E080F8FF5184F8688009F1BD
:104470000101204600F0A0FA0028CCD0F00703D0BC
:10448000616E2809087013E0606E017801F0F00198
:1044900041EA152101700BE0626E3006A9B202EB11
:1044A000D050D3E7626E700602EBD05006F0BCFF2E
:1044B00084F868800120AEE7F0B5034680680121EA
:1044C000074693F80CC003E0027852B11430491C3F
:1044D0008C45F9D200225C7B1646254601213B46DD
:1044E00017E08173F0BD1878032810D1587801289F
:1044F00002D0022806D00AE0D878A04207D20446AB
:104500000A4604E0D878A84201D205460E46491C66
:1045100014338C45E7D202B9324642B102EB820035
:104520006FF0130101EB800038448273F0BD00206E
:10453000F0BD000070B5016804463A4D487D30B9C1
:10454000287B8875C00750D0204600F089F80120EC
:10455000A8732068417D491C417500253FE000BFDC
:1045600000EB80006FF01303A26803EB800010449F
:104570000278052A2FD2DFE802F02E030727070072
:1045800002210170A17B0AE0C17821B1491E11F01E
:10459000FF01C1701FD1817891B1C9B2491E8170EC
:1045A000E17BC17062684168136909BA1B1D11B1D2
:1045B000021D002102E0002200F1080120462DE04A
:1045C000057000F0C9F806E0897D890703D5C17838
:1045D00061B1491EC1702168487D401C4875216841
:1045E000227B487D9042BBD94D7570BD417849B161
:1045F000626843681269D268934201D1457001E054
:104600000229DDD104210170A17B8170E17BC170A1
:104610006168021D20460B6900211B1DBDE870402A
:1046200000F0E8B8EC0708200A787F2A16D00E239D
:10463000B3EB121F12D0096809BA79B14A1C0DD028
:10464000406800694268806812BA00BA4A40024273
:1046500004D10143491C01D001207047002070475C
:1046600001680B78DA0703D04A8812B1521E4A80DB
:1046700070474A7852B1521E4A70026809210023DD
:10468000518002681946121D00F0B4B823F00102EF
:104690000A700268D16809B1012008470A21117522
:1046A0000068103004F036BE2DE9F04106460020C7
:1046B0004FF0010802464FF41067337BB46848E0BE
:1046C0002578022D01D0042D41D1CD88BD420DD1D8
:1046D0008D68D4F808C0654539D18D89B4F80CC00F
:1046E000654534D1D1F80E00606023E0D1F80E505A
:1046F000D4F804C065452AD18868A0608889A08163
:104700002569226114E070686F68C0680168C5F8A7
:104710000A108088E881A0686860A0892881716893
:1047200008798A6A29469047284604F05DFD3D468F
:10473000002DE8D16078022801D184F80180707BD7
:10474000E070B07BA07003202070BDE8F081401CB9
:1047500014348342B4D8F8E710B50146006900224A
:104760000A6103E0446804F03FFD20460028F9D1C7
:1047700010BD2DE9F041064617460D462A2004F0EB
:10478000DFFC0446A8686060A88920817068C16861
:104790000868C4F80A008888E0814FF4C16020826C
:1047A0004FF4807060820820A0820620A07504204B
:1047B000E07538BA000C2083A8686062A88920855B
:1047C000D5F80E00C4F82A007068C1680868C4F8FB
:1047D0001A008888E0837068006940682062716808
:1047E00008798A6A214690472046BDE8F04104F0E6
:1047F000FBBC00002DE9F04107461E4690460D46E1
:104800002A2004F09DFC04464FF48070002D01D056
:10481000294600E01F490A68626089882181796819
:10482000C9680A68C4F80A208988E1814FF4C16127
:10483000218260824FF00801A1824FF00601A1752C
:104840004FF00401E17501D04FF4006020837868D7
:10485000C0680168C4F81A108088E08300D10E4D4A
:1048600028686062A888208506B90B4E30682062EF
:10487000B8F1000000D108480068C4F82A0079683F
:1048800008798A6A214690472046BDE8F04104F045
:10489000ABBC000062C900005CC9000010B5164B3B
:1048A0008A681C68A24203D18C899B889C421ED0D6
:1048B000124B1C68A24203D18C899B889C4216D063
:1048C0000F4B12BAB3EB122F11D08A7B7F2A0ED076
:1048D0000E23B3EB121F0AD0D1F80E2011BA31B15A
:1048E000491C04D0406800694068824201D1002020
:1048F00010BD012010BD000062C900005CC90000AD
:104900005E00010010B50446816B05F097FD00289C
:1049100009D0606F00F5FF7002F04DF8A0F52A4154
:10492000553901D0002010BD606F417B84F83710ED
:104930000B3002F040F8A4F84A00606F0E3002F02D
:104940003AF8E087606F017C84F85C10113002F067
:1049500032F8A4F84800606F133002F02CF820649D
:10496000606F163002F027F8A087216CD9B9A8B97A
:10497000606F283002F01FF82086606F2C3002F044
:1049800022F8E062606F303002F015F86086606FE8
:10499000323002F010F8A086206C20B9606F203011
:1049A00002F011F82064A08F20B9606F243002F06B
:1049B0000AF8A087012010BD70B50446006E0D46B0
:1049C000A84240D094F8681001292AD1A66A86B17D
:1049D000217B49060DD594F85C10022906D00022EF
:1049E00001463046636E01F046FF15E0A18F421884
:1049F000F6E7A268616ED36801229847002821D0AB
:104A000094F85C00022809D1A268A18F206ED368B7
:104A10000844616E01229847002813D0002084F8D2
:104A2000680085B194F86900A18FA26848432844C2
:104A30009368616E01229847012806D04FF0FF303D
:104A40002066002070BD012070BD2566FBE70021B7
:104A5000A0F12002012A16D9D21E062A13D92D2828
:104A600023D02E2821D00D3A092A0CD940281CD059
:104A7000113A192A07D91D3A1D2A04D97D2814D0C4
:104A80007E2812D000E001212B280BD02C2809D041
:104A90003B2807D03D2805D05B2803D05D2801D0F6
:104AA0007F2800D90221084670470121FBE770B535
:104AB0000D46014605F12C0000F01BF806464FF4A8
:104AC0000071686FFBF7B0FF002406E0311928463B
:104AD00007F0A3FA00280BD0641C95F83700A04219
:104AE000F4D80021284607F098FA002800D00120C9
:104AF00070BD436AC2681A44837A41B1032B01D066
:104B0000838D1A44C07A891E01FB00207047032B55
:104B1000F8D010467047000080EA0160074A08217B
:104B200000284FEA400000DA504000284FEA4000D9
:104B300000DA5040891EF3D170470000B71DC10450
:104B400091FAA1F35840082208E000F000431BB19D
:104B50004000044B584000E04000521E002AF4D1AF
:104B600070470000B71DC10470B504460D464FF0F4
:104B7000FF3606E014F8011B3046FFF7E1FF06465A
:104B80006D1E002DF6D1304670BD00002DE9F041BC
:104B900086B00D4604460020CDE901501646694610
:104BA00001A800F0BCF918B1012006B0BDE8F08101
:104BB00003A801F08FFD03A801F0C2FA804603A804
:104BC00001F0A8FA07460B2222A10098FBF7FAFE93
:104BD00000981021C17241460E3006F021FC009869
:104BE0003946103006F01CFC00983946123006F0A9
:104BF00017FC00984146163006F012FC0098394622
:104C0000183006F00DFC0099202201F12000FBF77E
:104C1000D9FE0098290C143006F002FC0098A9B2C5
:104C20001A3006F0FDFB00982E21203000904170D4
:104C3000F16AA14200D10024210C143006F0F0FBEF
:104C40000098A1B21A3006F0EBFB314601A800F043
:104C50000CF9AAE72E202020202020202020200050
:104C60002DE9F74F0546007B0D210C30B0FBF1F02C
:104C7000334E82B0C4B201274FF0000A05F1100B89
:104C800069465846049A00F04AF9A0BB00990C7096
:104C90000FB1402000E000202043087003984873C3
:104CA000A1F81AA00F20C872641E81F80CA0E4B20B
:104CB00004EB84002B7B00EBC40000271B1A524638
:104CC0000D2B00D90D23D5F808C092460CEB000936
:104CD00000204A1C0BE000BF16F8008019F800C045
:104CE00001F808C016F80080401C08F802A098429D
:104CF000F2D300230AE01BE016F800C001F80C30E4
:104D000016F800C00CF80230FF23401C0D28F3D326
:104D1000287DC043000705D15846049900F0A5F846
:104D2000002806D101215846049A00F0C8F818B1AD
:104D3000012005B0BDE8F08F002CA1D10020F8E7DC
:104D400048C500002DE9FE4388460A9E15460446E4
:104D50001F4632466946404600F0E1F8A0BB009984
:104D60000020225C0A54401C0B28FAD3CF72002486
:104D70000C734C7301A801F0ADFC01A801F0E0F93F
:104D8000014600980E3006F04BFB01A801F0C2F975
:104D900001460098103006F043FB0098018A4182DA
:104DA000C289C2820183290C143006F039FB0098B5
:104DB000A9B21A3006F034FB00983146C46140466F
:104DC00000F053F8002800D00120BDE8FE83000069
:104DD00008480068C0010BD507480068C00707D025
:104DE000054880380068002802DA0449012008706C
:104DF00070470000FCED00E0800E00E068C0072076
:104E00004FF06042D36F002BFCD0036BD367D36F9E
:104E1000002BFCD0C07840EA0120A2F87C0070474B
:104E20004FF06041CA6F002AFCD081F87C007047C7
:104E3000012070474FF0FF3070474FF0FF30704750
:104E40000120704701207047012070470120704702
:104E50004FF0FF307047002070470120704701205D
:104E60007047012070470120704770B50C46D0E9AB
:104E7000001519B994F83600032803D1B4F85A0084
:104E8000401E054004F12C00FFF733FE00EB151126
:104E90000122204607F018F908B1002070BD082053
:104EA00070BD51B102684B6A9A4206D140688A6A65
:104EB000904202D191F82C00704700207047F8B55D
:104EC00016464268B6F85A3004465B1E02EA0300F2
:104ED00045181144616096F83600032801D0226815
:104EE0001AB101F024FD074613E0B1F5007F0DD2A1
:104EF00013E02D1A2068324669460090FFF720FA29
:104F000020B10098B84203D10120F8BD0220F8BDBD
:104F10002060B6F85A00A842EBD90020F8BD70B561
:104F20000E46D0E90015144619B994F83600032846
:104F300003D1B4F85A00401E054004F12C00FFF7DD
:104F4000D8FD00EB1511204605F078FA38B1606FF6
:104F500005F00F0100EB41103060002070BD012012
:104F600070BD017861B1E5290CD0C07A00F03F0135
:104F70000F2909D0C0F3C100012807D004207047D1
:104F800000207047012070470320704702207047BF
:104F9000014903F014BB00000407082010B50446C3
:104FA000C0688069804721688A7C824214D08874F6
:104FB000012812D0A0680021826B03209047A068CE
:104FC0000021826B02209047A0680321826B04209D
:104FD000904721680120487410BDE068C06980478F
:104FE000C0F380020146236862F39F0162F39F00D1
:104FF000D9740146606842690AB141F080010068D5
:1050000041F255524088104201D041F0200142F651
:10501000AA22104201D041F04001A068826B012019
:105020009047A0680121826B03209047A06801216E
:10503000826B0220CCE70000064905E0927E8242A6
:1050400001D108687047091D0A68002AF6D10020BE
:105050007047000094C3000070B504460068A021AA
:10506000FBF704FDA068406880470546800401D531
:10507000E06900E00020A16889688847A0680169AC
:1050800002208847E80404D5A16820694969884757
:105090000BE0D4E9041002F0C9FF18B120690078D0
:1050A000C00702D0032004F02DF9A16820698969A6
:1050B0008847208B80B140F48031A068826B062045
:1050C000904710B1001D04D006E02168208B488075
:1050D00002E0032004F016F92068418811B140F283
:1050E000EE5101E040F2EA518180A068E268016C73
:1050F0005268C06B904710B1001D18D01AE02068AC
:10510000017841F001010170E068C1680220884720
:10511000E168C5F3812009698847E0684169082092
:1051200088470022A07E114602F058FF02E00320CB
:1051300004F0E8F86068406980B3808A00F09FF965
:105140006168096908806068D0E90410091D006879
:1051500002F0C4FFF8B16068D0E90410083140687B
:1051600002F0BCFFB8B16068D0E904100C3180686F
:1051700002F0B4FF78B16068D0E904101031C06863
:1051800002F0ACFF38B16068D0E904101431006956
:1051900002F0A4FF10B9032004F0B4F82168032042
:1051A00048706068406928B1C06918B1007B216807
:1051B000001D4870214E06212069726803F0F0F945
:1051C00070600020E90700D00120690701D540F098
:1051D0000400290701D540F01000E90601D540F090
:1051E0004000A90601D540F00200290601D540F093
:1051F0000800E90501D540F02000A90501D540F0DF
:10520000800061684A6902B9002009684880A804E2
:1052100004D42068017841F002010170D4E9001043
:105220001C31808804F020FD21680028886104D1A9
:10523000BDE87040032004F065B870BDEC0708209D
:105240002DE9F041714E05464FF00107307B4FF0DC
:1052500000044107286801D507740EE0417C61B164
:10526000807C0128A87E28D00022114602F0B6FEDC
:105270006868006804702868447428688179C07977
:1052800081427DD0B77374616868202300684088CC
:1052900030822968C87900F01F0203EB8202401CAB
:1052A0008C58C8712868418891B32088001F0E2847
:1052B00042D3228A812A3FD113E003F087F928687C
:1052C0000121C27CA87E02F089FE6968486920B18C
:1052D000006A10B9084603F08AF868680068077029
:1052E000C9E7628A12BAC2F30B428A4224D10C2166
:1052F000021F05E063180831D3E9027CC3E9017C91
:105300009142F7D3814202D221448A684A602080C8
:10531000208A00BA000CB0F5006F1AD0A0F500602A
:1053200006380ED000F22910B0F5004F04D02288C4
:10533000A87E211D02F053FE2046BDE8F04103F097
:1053400053BF686841690029F6D0214603F05FF831
:10535000F2E7686840690028EED028696168026851
:10536000914207D121898088814203D1307B40F06E
:10537000200030732146686803F0BAFB002800E083
:1053800041E0D9D0224960680A68904203D122895D
:1053900089888A420CD01F4900BAB1EB102F07D080
:1053A00004F10A0204F11E01686802F02AFF06E017
:1053B00004F10A0204F11E01686802F0D2FE2046E0
:1053C00003F08FFD04001ED0E07E01280BD00228E0
:1053D0000ED0062811D01128AED1002221466868CF
:1053E00004F040FCA8E72146686803F0B9FAA3E797
:1053F0002146686803F07AFB9EE700222146686830
:1054000003F0E2FF98E7BDE8F0810000EC07082018
:1054100062C900005E00010010B50446C068C168A2
:1054200000208847E068806880470022A07E1146FF
:1054300002F0D4FD2069002101608180A16820690B
:1054400089698847A068016900208847A068C0680A
:1054500080476068416919B100691821FBF7E4FAD7
:105460002068C169806904F015FC2068BDE810401F
:10547000A021FBF7FBBA0068C06904F015BC002846
:1054800006D04FF4107240F2DC51904201D2104627
:1054900070478842FCD908467047082911D2DFE8D6
:1054A00001F0040E0B06060606060620704740684B
:1054B000406930B1042070474068406908B102205B
:1054C00070470020704770B5044626E00E2D37D394
:1054D00020688188A94233D38179C079081AC0B283
:1054E00020282DD245F0004003F02AFE060027D0E8
:1054F000A0682946426A301D9047206820228179A1
:1055000001F01F0102EB81014650206881682944A7
:10551000816020688179491C8171A068806A804718
:105520000500D3D120688179C27991420ED00178EB
:10553000890701D502210175BDE8704003F006BF5F
:10554000A0680021426A08469047E6E770BD02F075
:1055500047BD0068C06904F0ABBB0000F0B585B082
:10556000002803DB46490978884202DB042005B0A5
:10557000F0BD444900EBC00001EB8004208AC10665
:105580000FD481070DD010F0600F74D01C2021685B
:1055900000F038FC050006D0208A40F01000208280
:1055A0006AE00120E3E760690190608A0290694641
:1055B00001A82268FFF7B3FC002859D103A801F025
:1055C00089F803A800F0BCFD074603A800F0A2FD7F
:1055D00006460098123001F0EEF9B04208D000986B
:1055E0003146123005F01CFF207C400603D422E037
:1055F000207C400640D5A069010C0098143005F0CD
:105600000FFF208B81B200981A3005F009FF009837
:10561000A1681C3005F008FF00983946163005F0E7
:10562000FFFE00983146183005F0FAFE0098C17A66
:1056300041F02001C17201A82168FFF716FCB8B93A
:10564000207C400618D52168C868C20506D520F41C
:105650008070C860206801F0BDF848B10021206862
:1056600006F0DBFC20B100212068FFF7A5F918B98E
:10567000012501E0FFE7002500202082284676E78B
:1056800098C200002C00001030B50346094C0CE015
:10569000585CA0F16105192D01D820F0200080EAA6
:1056A000126054F8200080EA0222491EF0D210460F
:1056B00030BD000058C50000064900EBC00001EBFA
:1056C0008000017C890701D0806870474FF0FF306F
:1056D000704700002C00001070B5064600240C49ED
:1056E0000C4807E004EBC40201EB82052A7C920718
:1056F00006D0641C02789442F4DB4FF0FF3070BD9A
:1057000024212846FBF7B2F920462E6070BD000028
:105710002C00001098C2000010B50446C06820F4A8
:10572000FF70012818D0204600F046FF6068A8B13D
:10573000A16899B10020E0602069606600F5007200
:1057400000F58060C4E91D2009680020884738B151
:10575000E06840F00100E060002010BD012010BDB5
:10576000082010BD38B50446806A08B3E06820F010
:105770004000E06094F85C0002284FF0000018D36D
:1057800000906946204601F023FB002811D00099C3
:10579000204679B101F085FB00280AD0A168A06AF3
:1057A00001F048F8002804D0E06840F04000E060D4
:1057B000012038BD00F002F8EEE700007CB5044699
:1057C000806AE0B3E06801AA20F04000E0604FF09A
:1057D000FF302066002084F8680000900190694640
:1057E000204601F05AFA60B3DDE90012204601F0CC
:1057F0003AFB002824D0DDE90001014404F12C002B
:10580000491EFFF776F994F83710401E4518104EE0
:10581000606F314605F008FE606F314600F5FE709E
:1058200005F002FE00222946204606F04DFC002825
:1058300006D02046009901F034FB002800D001205A
:105840007CBDDDE900010843FAD000207CBD0000EA
:105850004A5441462DE9F0470446C068214640F0CD
:105860003000E060012000F0CDFA002836D1A068B9
:1058700001680120884778B3E06840F00600E060E6
:10588000606AFFF7ECFA342104F12C00FBF7EEF824
:105890004FF0FF360025266684F8685084F869507A
:1058A000E66684F87C5084F87D500227294620461D
:1058B000E76104F0C3FDE8B3606F00F5FF7001F02D
:1058C0007AF8A0F52A41553943D1606F0178E9296A
:1058D0001AD0EB2904D006E0FFE70920BDE8F087E5
:1058E0008178902910D000F5E37001F06CF8A06386
:1058F0004FF001092046FFF705F8D8B1B4F84A0087
:10590000B0F5007F25D101E0A563F1E7B4F83EC012
:10591000BCF1000F1DD0A58F236C9D4219D894F8BF
:105920005C20022A15D894F83710102913D00ADC0D
:10593000012900E00DE00ED002290CD004290AD084
:10594000082906D107E0202905D0402903D0802965
:1059500001D00B20C2E7B4F8488002FB05C506EB76
:10596000481606F5007696FBF0F02A189A1A62643B
:10597000B2FBF1F2C4E91325A4F8580048026065AF
:105980004009A4F85A0040F6F570824202D284F829
:1059900036903BE04FF6F570824202D284F83670C2
:1059A00034E0032084F83600204600F0D5FE68B3CA
:1059B0000027E18FA06B3E46022500EB0108E809B5
:1059C00008EB0001B14207D90E46A18F0A1A3146F1
:1059D000204604F0F6FC40B1606F05F07F0100EB5B
:1059E000810000F0F0FF10B102E0082076E77F1C94
:1059F000E06C6D1C801CA842E1D8A761207BC0062A
:105A000004D5204600F0E6FE0028EED0204600F047
:105A1000CAFF2062E06840F00800E060C00607D5D9
:105A20002046FFF79FFE18B9E06840F08000E06074
:105A3000002053E72DE9F0478AB090460E46002833
:105A40000EDB6C49097888420ADA6B4900EBC0002A
:105A500001EB800426B1304604F078FC88BB03E0FB
:105A600004200AB0BDE8F0870F20216800F0CAF9D1
:105A70000028F6D118F00C0F03D02068007BC00678
:105A80003BD5002018F00C0104D0042905D00829CA
:105A90007CD101E0012502E0042040F002056946C6
:105AA0003046226804F0E6FB6846216804F0FBFB00
:105AB00006004FF000090DF1100A03D00D2E66D03C
:105AC00096E003E00198C07AC00601D50620C8E739
:105AD0009DF818105046491E2268FFF7F0F900287B
